:100000000C9493080C94BB080C94BB080C949B3381
:100010000C949B330C949B330C94BB080C94BB083E
:100020000C94BB080C94BB080C94BB080C94BB0844
:100030000C94BB080C94BB080C94BB080C94BB0834
:100040000C9451330C94BB080C94BB080C94BB0863
:100050000C94BB080C94BB080C94BB080C94BB0814
:100060000C9413340C94BB080C94BB080C949B3375
:100070000C94BB080C94BB080C94BB080C94BB08F4
:100080000C94BB080C94BB080C94BB080C94BB08E4
:100090000C94BB080C94BB080C94BB080C94BB08D4
:1000A0000C94BB080C94BB080C94BB080C94BB08C4
:1000B0000C94BB080000000000CCFFCC6400993316
:1000C000FF9001004C998403000000DC0500000053
:1000D000881300FFFF0000007FFFF401000020E80C
:1000E0000300000014050000008813FF00800000DA
:1000F000FFFF33F40199FF33E8030000001405000B
:100100000000881380FF00000080C8005802000033
:100110000014050000008813CD73BA0000F0C6EA91
:10012000F401914F3EE80300000014050000008830
:1001300013B37BFF00006AE8F0F401379E9FE803E9
:1001400000000014050000008813FF009F00008AD3
:1001500000C68403000000DC0500000088130000D6
:10016000000000FFFFFF640000B4C89001004600DB
:100170008403000000DC050000008813000000007C
:10018000000000000100000000C800C832322C014D
:100190000A0A0A90010A0A0AF40132C8AA5802009F
:1001A00000002003000000B0040000000000000078
:1001B000000100000000C80032FFFF2C01141414DD
:1001C0009001141414F40119197F58020000002042
:1001D00003000000B00400000000004C9900010082
:1001E000B2FF66D0074C9900A00F0000000000008D
:1001F0009999010066FFFFD007009999A00F0000B0
:10020000000000004C99010066B2FFD007004C9935
:10021000A00F00000000006666FF0100000099D0FA
:10022000076666FFA00F000000000099009901001A
:10023000FF66FFD007990099A00F00000000009909
:1002400000000100FF6666D007990000A00F0000C3
:100250000000009999000100FFFF66D007999900FE
:10026000A00F0000000000009900010066FF66D0AA
:1002700007009900A00F00000000004C9900010049
:10028000B2FF66D0074C9900A00F0000000000FFED
:10029000FFFF010000F9BFE803FFFFFFD0070000E8
:1002A000000000C1A0B864009F71B090011F3539F3
:1002B0008403000000DC050000008813000000003B
:1002C00000EEE675640049DA4990011C4F4C840346
:1002D000000000DC0500000088130000000000FFA3
:1002E000FFFF640000B4C8900100460084030000D2
:1002F00000DC0500000088130000000000FFFFFF85
:100300000100CD8247E803FFFFFFD0070000000097
:1003100000FFFFFF010073FC00E803FFFFFFD007B1
:100320000000000000FFFFFF0100F58BFAE803FF6B
:10033000FFFFD0070000000000FFFFFF0100F5F9FC
:100340004BE803FFFFFFD0070000000000FFFFFFA6
:1003500001004E6592E803FFFFFFD0070000000098
:1003600000B3FFBA0100DFFFBAE803FFFFBAD0070E
:10037000FFBAC9B80BE1BAFFA00FB3FFBA881300E8
:1003800000000000FFFFFF010000FF00E803FFFF87
:10039000FFD007000000000049FFDB01001C1C3EED
:1003A000E803F032FFD00781FF32B80B345A7BA04C
:1003B0000F49FFDB8813000000000003E403F40191
:1003C00003E403B6038CFF00E8038CFF00AA05EDED
:1003D000FF00DC05EDFF009E07800026D0078000AF
:1003E00026920940248EC40940248E860B297382EC
:1003F000B80B2973827A0D03E403AC0D00000000F2
:1004000000B8FF4C640066F2ABC80059A4D12C01BF
:10041000D32CE19001B8FF4CF4010000000000E390
:10042000F2DB640064414AC8003A26292C016AE8DC
:10043000339001E3F2DBF401000000000000000053
:1004400001008A1F70F4018A1F70E8030000004C4D
:1004500004000000E204DBBF38D606DBBF38CA0860
:100460000000002E09000000920973FC00860B7347
:10047000FC007A0D000000DE0D000000420E0000BE
:100480000000000000000100041585F4010415853A
:10049000E8030000004C04000000E2042AC688D6ED
:1004A000062AC688CA080000002E0900000092092A
:1004B000C403A1860BC403A17A0D000000DE0D0069
:1004C0000000420E6E6F0079657300436F6E6E65BB
:1004D000637465643A20004C6576656C3A200020B0
:1004E00000300049443A2000486F6C64204F6B6133
:1004F0007920746F20636F6E6669726D00456E744B
:10050000657220796F7572206E616D65002900201B
:10051000282B004C6576656C20007C00FFFFFFFFF8
:10052000FFFFFFFFFFFFFFFFFFFFFFFFFFFFFFFFDB
:10053000FFFFFFFFFFFFFFFFFFFFFFFFFFFFFFFFCB
:10054000FFFFFFFFFFFFFF807FFFFFFFFFFFFFFFBA
:10055000FFFFFFFFFFFFFF001FFFFFFFFFFFFFFF8A
:10056000FFFFFFFFFFFFFE001FFFFFFFFFFFFFFF7B
:10057000FFFFFFFFFFFFFE1E0FFFFFFFFFFFFFFF5D
:10058000FFFFFFFFFFFFFC3F8FFFFFFFFFFFFFFFAE
:10059000FFFFFFFFFFFFFC3F87FFFFFFFFFFFFFFA6
:1005A0003E7FE007FF3FFC7187FFFFFFFFFFFFFC7F
:1005B000300FC001F803FC0007FFFFFFFFFFFFF053
:1005C00020038000E000FC0007FFFFFFFFFFFFF0BB
:1005D00000030000C0007C0003FFFFFFFFFFFFF0EF
:1005E000000100018000380003FFFFFFFFFFFFF064
:1005F000000187E100C0300007FFFFFFFFFFFFF0B1
:100600000F0187FB03F0001F8FFFFFFFFFFFFFF0CD
:100610001F8083FE07F8003FDFFFFFFFFFFFFFF0B3
:100620003F8080FE07FC007FFFFFFFFFFFFFFFF022
:100630003F80801E07FC007FFFFFFFFFFFFFFFF0F2
:100640003F808004000000FFFFFFFFFFFFFFFFF07F
:100650003F808000000000FFFFFFFFFFFFFFFFF073
:100660003F80C000000000FFFFFFFFFFFFFFFFF023
:100670003F80F8000000007FFFFFFFFFFFFFFFF05B
:100680003F80FF0007FFC07FFFFFFFFFFFFFFFF07E
:100690003F80FFC007FFE07FFFFFFFFFFFFFFFF08E
:1006A0003F80BFE003FEE03FCFFFFFFFFFFFFFF013
:1006B0003F808FE001F8700F07FFFFFFFFFFFFF0A3
:1006C0003F8080000000300003FFFFFFFFFFFFF0CE
:1006D0003F8080008000380003FFFFFFFFFFFFF036
:1006E0003F808000C0007C0007FFFFFFFFFFFFF09E
:1006F0003F808001F000FE000FFFFFFFFFFFFFF0D3
:100700003F80C007FC03FFC03FFFFFFFFFFFFFFF6D
:10071000FFFFFFFFFFFFFFFFFFFFFFFF486F6C645E
:10072000204F6B617920746F206578697400507276
:10073000657373205820746F2064656C6574650060
:1007400000000000000000000000000000000000A9
:100750000000000000000000010101010101010191
:100760000101010102020202020202020303030369
:10077000030304040404050505050506060606072B
:1007800007070808080909090A0A0A0B0B0B0C0CD1
:100790000D0D0D0E0E0F0F10101111121213131458
:1007A000141515161617181819191A1B1B1C1D1DC0
:1007B0001E1F1F2021222223242526262728292AFE
:1007C0002A2B2C2D2E2F3031323334353637383911
:1007D0003A3B3C3D3E3F4041424445464748494BF9
:1007E0004C4D4E50515254555658595A5C5D5E60AE
:1007F0006163646667696A6C6D6F70727375777830
:100800007A7C7D7F8182848688898B8D8F9192947A
:1008100096989A9C9EA0A2A4A6A8AAACAEB0B2B488
:10082000B6B8BABCBFC1C3C5C7CACCCED1D3D5D761
:10083000DADCDFE1E3E6E8EBEDF0F2F5F7FAFCFFF6
:1008400000000000003E5B4F5B3E3E6B4F6B3E1C6A
:100850003E7C3E1C183C7E3C181C577D571C1C5E81
:100860007F5E1C00183C1800FFE7C3E7FF00182458
:100870001800FFE7DBE7FF30483A060E2629792902
:1008800026407F050507407F05253F5A3CE73C5A37
:100890007F3E1C1C08081C1C3E7F14227F22145F14
:1008A0005F005F5F06097F017F006689956A60606F
:1008B00060606094A2FFA29408047E040810207E69
:1008C000201008082A1C08081C2A08081E101010EE
:1008D000100C1E0C1E0C30383E3830060E3E0E0634
:1008E000000000000000005F000000070007001487
:1008F0007F147F14242A7F2A122313086462364946
:100900005620500008070300001C2241000041222D
:100910001C002A1C7F1C2A08083E08080080703032
:1009200000080808080800006060002010080402A1
:100930003E5149453E00427F4000724949494621A7
:1009400041494D331814127F1027454545393C4A1B
:100950004949314121110907364949493646494932
:10096000291E00001400000040340000000814227A
:1009700041141414141400412214080201590906E8
:100980003E415D594E7C1211127C7F494949363EE9
:10099000414141227F4141413E7F494949417F09CF
:1009A0000909013E414151737F0808087F00417FDA
:1009B00041002040413F017F081422417F404040D8
:1009C000407F021C027F7F0408107F3E4141413E70
:1009D0007F090909063E4151215E7F0919294626F2
:1009E0004949493203017F01033F4040403F1F20F6
:1009F00040201F3F4038403F6314081463030478CD
:100A000004036159494D43007F41414102040810EC
:100A100020004141417F0402010204404040404027
:100A2000000307080020545478407F284444383895
:100A300044444428384444287F3854545418000807
:100A40007E090218A4A49C787F0804047800447DE1
:100A500040002040403D007F1028440000417F407E
:100A6000007C047804787C080404783844444438D2
:100A7000FC1824241818242418FC7C0804040848B2
:100A80005454542404043F44243C4040207C1C2003
:100A900040201C3C4030403C44281028444C90905E
:100AA000907C4464544C44000836410000007700B8
:100AB00000004136080002010204023C2623263CC5
:100AC0001EA1A161123A4040207A38545455592150
:100AD0005555794122545478422155547840205438
:100AE0005579400C1E527212395555555939545486
:100AF000545939555454580000457C410002457DF5
:100B0000420001457C407D1211127DF0282528F01D
:100B10007C545545002054547C547C0A097F49324A
:100B2000494949323A4444443A324A4848303A41C1
:100B300041217A3A42402078009DA0A07D3D42426A
:100B4000423D3D4040403D3C24FF2424487E4943F3
:100B5000662B2FFC2F2BFF0929F620C0887E090366
:100B600020545479410000447D413048484A32388D
:100B70004040227A007A0A0A727D0D19317D2629B9
:100B8000292F28262929292630484D4020380808B1
:100B9000080808080808382F10C8ACBA2F102834E5
:100BA000FA00007B000008142A142222142A1408D8
:100BB0005500550055AA55AA55AAFF55FF55FF00E7
:100BC0000000FF00101010FF00141414FF0010109C
:100BD000FF00FF1010F010F0141414FC001414F7B0
:100BE00000FF0000FF00FF1414F404FC141417109D
:100BF0001F10101F101F1414141F00101010F000ED
:100C00000000001F101010101F10101010F0100026
:100C10000000FF101010101010101010FF10000036
:100C200000FF140000FF00FF00001F10170000FC71
:100C300004F414141710171414F404F40000FF0043
:100C4000F714141414141414F700F71414141714CC
:100C500010101F101F141414F4141010F010F000D2
:100C6000001F101F0000001F14000000FC140000F3
:100C7000F010F01010FF10FF141414FF14101010D7
:100C80001F00000000F010FFFFFFFFFFF0F0F0F08A
:100C9000F0FFFFFF0000000000FFFF0F0F0F0F0F1E
:100CA0003844443844FC4A4A4A347E02020606026A
:100CB0007E027E0263554941633844443C04407ED1
:100CC000201E2006027E020299A5E7A5991C2A494A
:100CD0002A1C4C7201724C304A4D4D3030487848D5
:100CE00030BC625A463D3E494949007E0101017EC1
:100CF0002A2A2A2A2A44445F444440514A44404014
:100D0000444A51400000FF0103E080FF0000080852
:100D10006B6B083612362436060F090F06000018D2
:100D2000180000001010003040FF0101001F0101F9
:100D30001E00191D1712003C3C3C3C000000000046
:100D40002200FF2100000103070F1F3F7F0080C02A
:100D5000E0F0F8FCFEDB40A4A62EAF2000A1C8D333
:100D600000408DAED580A800000000240027002A96
:100D7000002D00000000002300260029002C000A9E
:100D80000D0E090003020000040508000000000029
:100D90000000000000000000000073006E65772076
:100DA00062616467650020004E6F0050616972697E
:100DB0006E67001464000000000000F401FF0000F2
:100DC000E803783013D007FF0000B80B00000000E4
:100DD0000000FF00C800000000900100FF00580262
:100DE0000000000000FFA1B5640080FF8CC800BCBB
:100DF000FF6E2C01FFFF6E9001C06EFFF401FFA19A
:100E0000B558025072657373205820746F20736553
:100E10007420796F7572206E616D6500015A005EF5
:100E2000010602B4005E0106040E015E01060868B8
:100E3000015E0106015A004A010402B4004A01049D
:100E4000040E014A01040868014A01040128003126
:100E5000010502500031010504780031010508A0A8
:100E60000031010501280018010502500018010594
:100E700004780018010508A000180105015A0004B3
:100E8000010402B400040104040E01040104086812
:100E900001040104015A00EB000502B400EB000557
:100EA000040E01EB0005086801EB0005015A00D2B1
:100EB000000502B400D20005040E01D20005086846
:100EC00001D20005015A00B4000602B400B40006C5
:100ED000040E01B40006086801B40006FFFF000E0E
:100EE0007E04FFFF0A0E7E04AAAA0A0E7E04FFFFFC
:100EF000000E3804FFFF0A0E3804AAAA0A0E3804AE
:100F0000FFFF00061A04FFFF0A061A04AAAA0A062F
:100F10001A04FFFF0006FC03FFFF0A06FC03AAAA4F
:100F20000A06FC03FFFF000EB603FFFF0A0EB6031E
:100F3000AAAA0A0EB603FFFF00079303FFFF0A07E2
:100F40009303AAAA0A079303FFFF00047F03FFFF8E
:100F50000A047F03AAAA0A047F03FFFF00075C03B9
:100F6000FFFF0A075C03AAAA0A075C03FFFF00044D
:100F70004803FFFF0A044803AAAA0A044803FFFF24
:100F800000043403FFFF0A043403AAAA0A0434034A
:100F9000FFFF00042003FFFF0A042003AAAA0A049B
:100FA0002003FFFF00040C03FFFF0A040C03AAAA9E
:100FB0000A040C03FFFF0004F802FFFF0A04F80212
:100FC000AAAA0A04F802FFFF0006DA02FFFF46069B
:100FD000DA02FFFF0006BC02FFFF4606BC02FFFF6D
:100FE00000069E02FFFF46069E02FFFF00048A02E3
:100FF000FFFF0A048A02AAAA0A048A02FFFF000469
:101000007602FFFF3C047602AAAA3C047602FFFFA8
:1010100000046202FFFF3C046202AAAA3C046202CE
:10102000FFFF00044E02FFFF3C044E02AAAA3C044C
:101030004E02FFFF00043A02FFFF3C043A02AAAA54
:101040003C043A02FFFF00042602FFFF3C04260294
:10105000AAAA3C042602FFFF00041202FFFF3C0480
:101060001202AAAA3C041202FFFF0004FE01FFFFC5
:101070003C04FE01AAAA3C04FE01FFFF0004EA01B1
:10108000FFFF3C04EA01AAAA3C04EA01FFFF0004B6
:10109000D601FFFF3C04D601AAAA3C04D601FFFFFB
:1010A0000009A901AAAA0009A901FFFF00097C0102
:1010B000AAAA00097C01466163746F727920726587
:1010C00073657400426164676520696E666F726D56
:1010D0006174696F6E00536574206E616D65000107
:1010E00002040810204080010204081020010204BC
:1010F0000810204080400102040800000000250084
:1011000028002B002E00040404040404040402023A
:10111000020202020303030303030202030505059F
:1011200005009335B93B11241FBECFEFD8E0DEBFD9
:10113000CDBF26E0A8EEB1E001C01D92AD3AB207E6
:10114000E1F711E0A0E0B1E0EEE2FCE702C00590BB
:101150000D92A83EB107D9F718E0C2E9D8E004C063
:101160002197FE010E94C33CC139D107C9F70E94F3
:101170001D390C940A3E0C9400000895880F80934A
:10118000BA0008959B01AC0160E072E18AE790E04B
:101190000E94823C205131094109510956954795D9
:1011A000379527952093B8000895882321F085EC82
:1011B0008093BC00089585E8FBCF85ED8093BC004B
:1011C0008091BC0084FDFCCF10923202089585EC22
:1011D0008093BC001092320208958F929F92AF923A
:1011E000BF92CF92DF92EF92FF92C090AB02D0906D
:1011F000AC02E090AD02F090AE02C60ED71EE11C2C
:10120000F11CFC01C282D382E482F5822091950216
:10121000309196022A30310580F5A9014F5F5F4F6A
:101220005093960240939502A9014F5F5F4F440F80
:10123000551F21153105E1F02150310936952795CB
:10124000F901EE0FFF1FE956FD4FA081B181129603
:101250008D909D90AD90BC901597C814D904EA0468
:10126000FB0430F4FA01EB56FD4FB183A083DCCFD1
:10127000FA01EB56FD4F91838083FF90EF90DF9052
:10128000CF90BF90AF909F908F900895DF92EF9294
:10129000FF920F931F93CF93DF937C01EB018B01A0
:1012A000040F111DFB010E171F0729F084918823DD
:1012B000E1F03196F8CFDD24D3940C171D07B9F077
:1012C000FE016491662399F0C8018C1B9D0B049765
:1012D00014F4D1106EE2D701ED91FC910190F081F0
:1012E000E02DC70109952196E8CFD12CE6CFDF91FB
:1012F000CF911F910F91FF90EF90DF900895825052
:101300008D3008F03EC0E82FF0E0E757F64F0C9420
:10131000C33CBE09C20996099C09C109C109A009BB
:10132000A609AA09B009C109B409BA0980918000C7
:101330008F77809380000895809180008F7DF9CF12
:101340008091B0008F778093B00008958091B000B5
:101350008F7DF9CF809190008F77809390000895D2
:10136000809190008F7DF9CF8091A0008F7780933E
:10137000A00008958091A0008F7DF9CF84B58F776C
:1013800084BD089584B58F7DFBCFCF93DF93282F45
:1013900030E0F901E158F24F8491F901E152FF4E3A
:1013A000D491F901EA5FFE4EC491CC23A1F08111E2
:1013B0000E947F09EC2FF0E0EE0FFF1FED58F24F77
:1013C000A591B491EC91ED2381E090E009F480E0E7
:1013D000DF91CF91089580E090E0FACF1F93CF93F3
:1013E000DF93282F30E0F901E158F24F8491F901A1
:1013F000E152FF4ED491F901EA5FFE4EC491CC2335
:10140000A9F0162F81110E947F09EC2FF0E0EE0F5A
:10141000FF1FE650FF4EA591B4918FB7F894EC9161
:10142000111108C0D095DE23DC938FBFDF91CF91DF
:101430001F910895DE2BF8CF1092320281E0809345
:1014400034021092330261E082E10E94EE0961E011
:1014500083E10E94EE09E9EBF0E080818E7F8083DA
:1014600080818D7F808380E28093B80085E48093C3
:10147000BC000895ECEBF0E080818A7B808360E023
:1014800082E10E94EE0960E083E10C94EE09CF93C3
:10149000DF9390E0FC01E152FF4E24918A5F9E4E63
:1014A000FC0184918823C9F090E0880F991FFC010A
:1014B000E959F24FA591B491FC01E650FF4EC59158
:1014C000D49161110DC09FB7F8948C91209582231F
:1014D0008C938881282328839FBFDF91CF91089523
:1014E000623051F49FB7F8943C91822F809583230A
:1014F0008C93E8812E2BEFCF8FB7F894EC912E2BA5
:101500002C938FBFEACF3FB7F894809183029091DC
:101510008402A0918502B091860226B5A89B05C0E1
:101520002F3F19F00196A11DB11D3FBFBA2FA92F62
:10153000982F8827BC01CD01620F711D811D911D5F
:1015400043E0660F771F881F991F4A95D1F70895CA
:101550008F929F92AF92BF92CF92DF92EF92FF92C3
:101560004B015C010E94830A6B017C010E94830A8B
:101570006C197D098E099F09683E734081059105AC
:10158000A8F321E0821A9108A108B10888EEC80EDC
:1015900083E0D81EE11CF11C81149104A104B10464
:1015A00029F7FF90EF90DF90CF90BF90AF909F9082
:1015B0008F900895EF92FF920F931F93CF93DF9335
:1015C0008C017B01D0E0C0E0F701EC0FFD1F6491BE
:1015D000662361F0D801ED91FC910190F081E02D3E
:1015E000C8010995892B11F02196EECFCE01DF912C
:1015F000CF911F910F91FF90EF900895AF92BF92FE
:10160000CF92DF92EF92FF920F931F93CF93DF93CE
:101610006C017B018B01040F151FEB015E01AE18FD
:10162000BF08C017D10759F06991D601ED91FC911F
:101630000190F081E02DC6010995892B79F7C5014C
:10164000DF91CF911F910F91FF90EF90DF90CF909E
:10165000BF90AF90089520917C0230917D022817B1
:10166000390771F490917B0280917A02981741F0CA
:10167000E0917B02F0E0E65CFD4F808190E0089510
:101680008FEF9FEF08950895EF92FF920F931F93AE
:10169000CF93DF93DC015C96ED90FC905D97E114B5
:1016A000F10479F481E090E013969C938E93129765
:1016B00090E080E0DF91CF911F910F91FF90EF902C
:1016C00008955196ED91FC91529750968C915097B8
:1016D000982F90950FB75E962C915E97122F1270EF
:1016E00021FD6095F8942081112319F1282B208386
:1016F000E7012197F1F728E0462F50E0308160FFA5
:101700001AC0382B3083E7012197F1F7BA0175959C
:101710006795215089F7112381F080818923808387
:101720000FBF5C968D919C910197F1F781E090E05D
:10173000C1CF2923DCCF3923E5CF9081892BEFCF8F
:1017400020917C0230917D022817390761F4809145
:101750007A0220917B0290E0805C9F4F821B91096E
:101760008F739927089590E080E0089520917C027E
:1017700030917D0228173907B9F490917B0280914E
:101780007A02981789F0E0917B02F0E0E65CFD4F69
:10179000808120917B0230E02F5F3F4F2F733327F2
:1017A00020937B0290E008958FEF9FEF0895E091E2
:1017B0007C02F0917D02E817F90769F4A389B489E6
:1017C0009C918589809589238C9310927D0210923B
:1017D0007C0281E0089580E00895CF93DF93EC01CF
:1017E0008A8D9B8D892B01F180917C0290917D02E5
:1017F0008C179D07C9F0009711F00E94D70B8E8DB2
:101800008E7F8E8F10927A0210927B02D0937D028F
:10181000C0937C02EB89FC8980819D89892B808320
:1018200081E0DF91CF91089580E0FBCFFC01138E22
:10183000128E118E108E178A168A81E390E0958F92
:10184000848F94859B3108F046C027E030E0378BC9
:10185000268B2FE230E0318F208F2BE130E0338F69
:10186000228F2091680084E0983064F09E304CF024
:101870008CEE890F823028F082E097311CF088E0EE
:1018800001C081E0822B8093680024858DE690E082
:1018900028309CF02E307CF08CEE820F823058F095
:1018A0008CE690E027314CF083E790E02B312CF070
:1018B00090E080E002C08BE690E0948B838B283030
:1018C0006CF491E001C0990F2A95EAF7958B848D0D
:1018D000958D0197F1F7CF010C94ED0B2E3014F498
:1018E0002850EFCF263114F42E50EBCF90E4263160
:1018F00069F32751E6CFEF92FF920F931F93CF9397
:10190000DF93EC01EC80FD806E157F050CF070C05C
:1019100057FF04C0240F351F50E040E08E819F81A7
:10192000FA01E20FF31F8E179F071CF49C01241B82
:10193000350B121613060CF05BC0922F842F869580
:10194000869586958E9DD0018F9DB00D11246A0FCE
:101950007B1FAD8DBE8DA60FB71F477049F188E084
:10196000841B482F682F70E0FB01E35BF24FE4918A
:10197000281708F063C0621B71092FEF30E002C026
:10198000359527956A95E2F7E2230130110539F084
:10199000B0F10230110561F58C91E82702C08C91FD
:1019A000E82BEC93941720F12C813D81A20FB31FFB
:1019B000E92FE41BE83078F00230110521F58E2F75
:1019C0009C9190959C932C813D81A20FB31F8850D0
:1019D0008830B0F7E770EE2359F0F0E0EB5BF24FA0
:1019E000E49101301105F9F010F10230110519F1FF
:1019F000DF91CF911F910F91FF90EF900895E095A7
:101A00008C91E823CECF81E00115110509F480E027
:101A100081959E2F8C932C813D81A20FB31F9850EE
:101A20009830C0F7D7CF8C91E82BEC93E1CFE095BD
:101A30008C91E823FACF8C91E827F7CF013011057C
:101A400009F4ADCFE0F20230110509F4A5CFAE0DD7
:101A5000BF1DAECF0F931F93CF93DF9377FF04C0CB
:101A6000260F371F70E060E0DC011496CD91DC9109
:101A7000FB01E20FF31FCE17DF071CF49E01261BAC
:101A8000370B121613064CF5FA0157FD3796A3E0F3
:101A9000F595E795AA95E1F7EC9FD001ED9FB00D84
:101AA000FC9FB00D11246A0F7B1FDC015D96ED9148
:101AB000FC91E60FF71F4770552781E090E001C0C9
:101AC000880F4A95EAF7482F0130110559F0A8F020
:101AD0002E0F3F1F02301105E1F0DF91CF911F91D2
:101AE0000F9108952E0F3F1FE217F307B1F3819175
:101AF000DF011197842B8C93F7CF80952E0F3F1F1A
:101B0000E217F30751F39191DF01119798239C930A
:101B1000F7CFE217F30709F38191DF0111978427CB
:101B20008C93F7CF0F931F93FA01DC0156964C91DB
:101B300056974230E9F04330A1F1413061F51496F7
:101B40004D915C91DA01AE1BBF0BFD01E21BF30B63
:101B500077FD0BC0DC0116964D915C9164177507FB
:101B600024F4AB01BF010E942A0D1F910F9108952B
:101B700014964D915C91DA01A61BB70BBD01615023
:101B80007109DC0116964D915C91DA01AE1BBF0B19
:101B9000FD01E21BF30B77FDE8CFAF010E947B0C48
:101BA000E4CF16964D915C91DA01A61BB70BBD01EF
:101BB00061507109CDCF0F931F93FA01DC01569646
:101BC0004C9156974230A9F0433091F1413019F5CC
:101BD00014964D915C91DA01AE1BBF0BFD0131975C
:101BE000F7FD04C0AB01BF010E947B0C1F910F9158
:101BF000089516964D915C91DA01AE1BBF0BFD0165
:101C00003197DC0114964D915C91DA01A61BB70B5C
:101C1000BD01621B730BF7FDE9CFDC0116964D91F8
:101C20005C91E417F50714F7AF010E942A0DDECF8F
:101C300016964D915C91DA01A61BB70BBD01621B94
:101C4000730BCECFFC0177FD64C08085918568174A
:101C500079070CF05EC057FD5CC0828593854817FC
:101C600059070CF056C086898230B1F0833029F1D3
:101C7000813041F484819581841B950BAB01BC01BB
:101C8000615071092130310509F108F443C0223057
:101C9000310509F463C0089584819581DC01A61B98
:101CA000B70BBD016150710986819781DC01A41BCE
:101CB000B50BAD0141505109E5CF86819781861B57
:101CC000970BBA01AC0141505109DCCFCA0157FD55
:101CD0000796A3E095958795AA95E1F7A481B5812C
:101CE0008A9F90018B9F300D9A9F300D1124620FB7
:101CF000731F058CF68DE02DE60FF71F47705527F3
:101D000021E030E001C0220F4A95EAF78081822B62
:101D100080830895CA0157FD079633E0959587950E
:101D20003A95E1F7A481B5818A9F90018B9F300D90
:101D30009A9F300D1124620F731F058CF68DE02DD4
:101D4000E60FF71F4770552781E090E001C0880F2C
:101D50004A95EAF7809590818923DACFCA0157FD29
:101D6000079623E0959587952A95E1F7A481B5819B
:101D70008A9F90018B9F300D9A9F300D1124620F26
:101D8000731F058CF68DE02DE60FF71F4770552762
:101D900021E030E001C0220F4A95EAF780818227D6
:101DA000B7CF0895FC016370668B8481958126818D
:101DB0003781613039F0633029F09187808733872C
:101DC00022870895318720879387828708952F92ED
:101DD0003F924F925F926F927F928F929F92AF92BB
:101DE000BF92CF92DF92EF92FF920F931F93CF9308
:101DF000DF93CDB7DEB76A970FB6F894DEBF0FBE9C
:101E0000CDBF9A8F898F7A8369834A01D22E188732
:101E10000F833701BC2CDC0159962D913C915A97C8
:101E20002115310509F015C118968D919C911997CE
:101E3000681779070CF0D7C11A968D919C914817B5
:101E400059070CF0D0C14C2C512CB6E0CB9E600D44
:101E5000711D11247C876B87161617060CF0C3C101
:101E6000EA2DF0E0FA87E98793E0EE0FFF1F9A95DD
:101E7000E1F7F88BEF87CF01840F951F181619062D
:101E80000CF0B1C1A98DBA8D58968C91811104C006
:101E9000BFEABD1508F4D394A98DBA8DED91FC91DC
:101EA00011970284F385E02DCD010995B5E0DB9E05
:101EB000C0011124E981FA81FC83EB83312C212CB0
:101EC0009C01205C374F388F2F8B4A2D50E05E8B62
:101ED0004D8BEF89F88DE20DF31D44919E828D822A
:101EE000D12CC12C69817A81620D731D7A8B698B2B
:101EF000842F90E09C8B8B8BE98DFA8DA081B18132
:101F000040FF82C0F1E0BF126FC0AF126DC01C96DF
:101F1000ED91FC912F813885A4014C0D5D1D6989DF
:101F20007A89898D9A8D0995EB89FC89F595E795D4
:101F30004E2F5FEFC51AD50A6D817E818D899E89EE
:101F4000680F791F7E836D8398E0C916D10481F6EE
:101F5000AFEF2A1A3A0AEB81FC81E40DF51DFC83F0
:101F6000EB83F5E02F16310409F0B3CF2F813885CC
:101F700026153705B9F0A98DBA8DED91FC91B1E028
:101F8000BB1257C0AB1255C069817A816B5F7F4F1E
:101F90000088F189E02D830128E030E0A401898DDB
:101FA0009A8D0995A98DBA8DED91FC9111970688AE
:101FB000F789E02DCD016A960FB6F894DEBF0FBE0B
:101FC000CDBFDF91CF911F910F91FF90EF90DF90E8
:101FD000CF90BF90AF909F908F907F906F905F90C9
:101FE0004F903F902F9009941E96ED91FC91EF80B9
:101FF000F88409851A8592014D815E816B817C810F
:10200000898D9A8D099590CF2F81388526153705B2
:1020100009F48ACF31E0B31207C0A31205C01C96A1
:10202000ED91FC91930178CF1E96ED91FC91730197
:10203000E0CF6B857C85641975090684F785E02DF2
:1020400073010F8518899201A401898D9A8D0995D4
:10205000A9CFF90134969491329745915491D91AA8
:10206000B7E0DB9E400D511D1124F90125913491FB
:102070003C8B2B8BFA0125903490FA0132967490A8
:1020800031963491398B329664903196449041E088
:102090004C1518F04A1508F07FC0662D062C000C70
:1020A000770B7C836B83842D042C000C990B9E830F
:1020B0008D83A98DBA8DED91FC9111970284F385E2
:1020C000E02DCD010995512CD12CC12CEA2DF0E049
:1020D000FA87E9872B2D30E03C872B87A401440D3C
:1020E000511D47FC5A95588F4F8B69817A81660D37
:1020F000711D67FC7A957E876D877989C71608F010
:1021000051CF2C2D30E04D815E81420F531FA985A8
:10211000BA854A9FC0014B9F900D5A9F900D112484
:10212000FC01E80DF91DF88BEF87852D612C4F8997
:10213000588D420F531F5E8B4D8B671408F050C0B3
:1021400044244394480E877041F4C1010196EB8901
:10215000FC89E20DF31DD4901C01D7FE19C0A98D96
:10216000BA8DED91FC91662D70E0B1E0BB1219C003
:10217000AB1217C02D853E85620F731F0484F58551
:10218000E02D2F8138854D895E89898D9A8D09953D
:10219000DD0C6394842DD1CF1E821D821C821B8294
:1021A00088CF4B815C81640F751FAB85BC856A9FAE
:1021B000C0016B9F900D7A9F900D112469817A81E7
:1021C000680F791F0684F785E02DEF80F884098574
:1021D0001A859D014F855889898D9A8D0995D8CF8B
:1021E000570CC3948ACF6A960FB6F894DEBF0FBE21
:1021F000CDBFDF91CF911F910F91FF90EF90DF90B6
:10220000CF90BF90AF909F908F907F906F905F9096
:102210004F903F902F9008958F929F92AF92CF92C0
:10222000EF92FF920F931F93CF93DF93EC01262F32
:10223000898D9A8D009709F051C06A30D1F41D86BE
:102240001C868D8948E0849F900111248E859F858E
:10225000820F931F9F878E8781E090E0DF91CF915F
:102260001F910F91FF90EF90CF90AF909F908F9024
:1022700008956D3089F3CC88AD888F898823C1F0AB
:102280008C859D8536E0C39E800D911D1124488567
:1022900059854817590764F44E855F851D861C864D
:1022A00038E0A39EC0011124840F951F9F878E875D
:1022B000EA88FB88088919894E855F856C857D854C
:1022C000CE010E94E70E2C898C859D8546E0249FD7
:1022D000800D911D11249D878C87BECF6A3069F4D3
:1022E0001D861C86FC013896E4912D898E859F857C
:1022F000E29F800D911D1124ADCF6D3009F4ACCF5C
:10230000FC0134963491631708F4A6CF3296E49119
:10231000E61708F4A1CFFC01329685909490462FE1
:10232000431B342F47E0349F800C911C1124F4018F
:10233000329634913196E4913323A9F1EE2399F149
:10234000CC88F4013596E491AD884F89442301F19E
:102350000E2E000CFF0BE30FF11DCE9EA001CF9EB1
:10236000500D11246C857D85460F571F6885798532
:10237000641775076CF44E855F851D861C86FC010D
:102380003896E491AE9E400D511D11245F874E8713
:10239000EA88FB88088919894E855F856C857D856B
:1023A000CE010E94E70EF4013496E4912C898C85CD
:1023B0009D85E29F800D911D11248DCF6F927F929C
:1023C0008F929F92AF92BF92CF92DF92EF92FF9245
:1023D0000F931F93CF93DF93EC016B015A013901E7
:1023E0004801E881F9810284F385E02D0995E881AF
:1023F000F9810288F389E02D87019301A501B601D7
:10240000CE010995A501480D591D41505109E8819A
:10241000F9810288F389E02D9301B601CE01099577
:10242000E881F9810088F189E02D9401A501B601C8
:10243000CE010995C60CD71CB60161507109E8811F
:10244000F9810088F189E02D9401A501CE0109955B
:10245000E881F9810688F789E02DCE01DF91CF91DF
:102460001F910F91FF90EF90DF90CF90BF90AF90B2
:102470009F908F907F906F9009946F927F928F9230
:102480009F92AF92BF92CF92DF92EF92FF920F9303
:102490001F93CF93DF935C01EB016A01490138017F
:1024A0008701DC01ED91FC916217730719F5641641
:1024B00075062CF0962D872D3A01C92ED82E96013F
:1024C000261937092F5F3F4F048CF58DE02DA301AE
:1024D000BE01C5010995DF91CF911F910F91FF902A
:1024E000EF90DF90CF90BF90AF909F908F907F90B4
:1024F0006F9008954615570591F42617370724F075
:10250000892D4B01C22FD82F9E01281939092F5F21
:102510003F4F068CF78DE02DA601B401DACF02847F
:10252000F385E02D0995D501ED91FC910488F5899D
:10253000E02D83019401A601BE01C5010995D501D5
:10254000ED91FC910688F789E02DC501DF91CF91CF
:102550001F910F91FF90EF90DF90CF90BF90AF90C1
:102560009F908F907F906F900994EF92FF920F93BE
:102570001F93DC011A960D911C911B9718962D91B3
:102580003C911997ED91FC9100A0F1A1E02D7B0108
:1025900050E040E070E060E009951F910F91FF90DE
:1025A000EF9008954F925F926F927F928F929F92D9
:1025B000AF92BF92CF92DF92EF92FF920F931F9351
:1025C000CF93DF936C012B015A0139014801DC01E3
:1025D000ED91FC910284F385E02D0995E201640CF4
:1025E000751CD601ED91FC91C615D7055CF40088E9
:1025F000F189E02D87019401A501BE01C60109956D
:102600002196EFCF0688F789E02DC601DF91CF91A3
:102610001F910F91FF90EF90DF90CF90BF90AF9000
:102620009F908F907F906F905F904F9009948F92C2
:102630009F92AF92BF92CF92DF92EF92FF920F9351
:102640001F93CF93DF93EC015B014A016901E8819D
:10265000F9810284F385E02D099595012C0D3D1D2E
:1026600021503109E881F9810488F589E02D78014C
:102670008401A401B501CE010995E881F98106889C
:10268000F789E02DCE01DF91CF911F910F91FF903F
:10269000EF90DF90CF90BF90AF909F908F90099474
:1026A0008F929F92AF92BF92CF92DF92EF92FF9262
:1026B0000F931F93CF93DF93EC015B014A016901F4
:1026C0007801E881F9810284F385E02D0995C80C31
:1026D000D91C860101501109E881F9810488F58926
:1026E000E02D9501A401B501CE010995E881F9819C
:1026F0000688F789E02DCE01DF91CF911F910F91D0
:10270000FF90EF90DF90CF90BF90AF909F908F9011
:102710000994EF92FF920F931F93DC01ED91FC91CE
:1027200000A0F1A1E02D09951F910F91FF90EF906E
:1027300008950F931F93DC01ED91FC91068CF78DAA
:10274000E02D09951F910F9108950F931F93DC01C0
:10275000ED91FC91048CF58DE02D09951F910F9161
:102760000895DC01ED91FC910084F185E02D099440
:102770002F923F924F925F926F927F928F929F9291
:10278000AF92BF92CF92DF92EF92FF920F931F937F
:10279000CF93DF9300D000D000D0CDB7DEB73C019F
:1027A0006A013E832D83FC82EB825801A41AB50A8C
:1027B000B7FE03C0B194A194B1088D809E80861AA3
:1027C000970A97FE03C09194819491088A149B0400
:1027D0005CF0902F812F0D811E819D838E839C2D17
:1027E0008D2D6B01692F782F0C151D055CF09D81D7
:1027F0008E817E836D83692F782F902F812F8601A4
:10280000C92ED82E1601201A310A2B012D813E81A6
:10281000421A530A57FE03C0519441945108710162
:1028200037FE03C03FEFE31AF30AF594E7948D8176
:102830009E81861797075CF5A1E0B0E0BA83A98373
:10284000C016D1064CF1D301ED91FC910484F585BD
:10285000E02D2B813C81A8016D817E818A149B042F
:102860001CF04D815E81B801C3010995E418F5089B
:10287000F7FE0AC02D813E8189819A81280F391F78
:102880003E832D83E20CF31C0F5F1F4FD9CF2FEF38
:102890003FEF3A832983D4CF26960FB6F894DEBF54
:1028A0000FBECDBFDF91CF911F910F91FF90EF90A1
:1028B000DF90CF90BF90AF909F908F907F906F9060
:1028C0005F904F903F902F90089520910E02260F19
:1028D0003327331F21323105ECF420913202FC0101
:1028E00090E080E0243069F082E00895A0910E022B
:1028F0002191AC0142515E4FA40FB52FB11D2C9315
:102900000196861798F380910E02680F60930E026D
:1029100080E0089581E008950F93413208F044C0AB
:10292000909132029111FCCF92E090933202009389
:1029300034029FEF90933102709336026093350218
:102940001092380240933702109239029091390266
:10295000880F892B8093390280913302813011F5E1
:1029600010923302809139028093BB008091BC00A9
:1029700083FDF8CF85EC8093BC00222321F0809169
:1029800032028230D1F3809131028F3F79F0809111
:102990003102803269F080913102803359F084E055
:1029A0000F91089585EEE7CF81E0FACF80E0F8CF70
:1029B00082E0F6CF83E0F4CF4132E0F5909132022D
:1029C0009111FCCF91E090933202209334022FEFCB
:1029D00020933102709336026093350210923802D0
:1029E000240F209337029093390290913902880F77
:1029F000892B80933902809133028130C9F410927F
:102A00003302809139028093BB008091BC0083FD2A
:102A1000F8CF85EC8093BC00809132028130E1F3E5
:102A200080913802841710F440913802842F089561
:102A300085EEF0CF40E0FACFE0919106F09192065A
:102A4000309729F010928E0610928F0609940895FF
:102A5000DC018091930690919406892B19F1909155
:102A6000890680918A069817E8F090E0292F30E0D7
:102A7000261737076CF4FD01E20FF31F4081E09148
:102A80008706F0918806E20FF31F40839F5FEECF29
:102A90001092890660938A06E0919306F09194065D
:102AA000CB0109940895DC015096EC915097519612
:102AB0008C915197E81748F41E968D919C91E80FE0
:102AC000F92FF11D808190E008958FEF9FEF089519
:102AD000FC01908981892FEF3FEF981740F4A6857C
:102AE000B785A90FB11D2C9130E09F5F908BC90174
:102AF0000895FC0181899089891B990B0895CF92D3
:102B0000DF92EF92FF920F931F93CF93DF938C018D
:102B1000CB017A01D80157962C915797222389F03F
:102B2000EB016B01C40ED51ECC15DD0579F0699162
:102B3000D801ED91FC910190F081E02DC80109953B
:102B4000F3CF9896ED91FC91642F0995C701DF9121
:102B5000CF911F910F91FF90EF90DF90CF9008954C
:102B6000CF93DF931F92CDB7DEB7FC0169838789CE
:102B70008823F9F02689848595852817190654F04D
:102B800081E090E09383828390E080E00F90DF917A
:102B9000CF9108958981A58923893489A20FB32F04
:102BA000B11D8C9385898F5F858B868B81E090E04A
:102BB000EDCF00A4F1A5E02D61E0CE0101960995CD
:102BC000F5CF0F93CF93DF93EC016B897C89EEA156
:102BD000FFA101E021E04E898A8909951D8A1E8A9C
:102BE0001F8ADF91CF910F910895CF92DF92EF92DC
:102BF000FF920F931F93CF93DF93EC017B01D42EB1
:102C0000AB8DBC8D8F8D91E057969C9357975296C4
:102C10008C93529755961C92559756961C925697A0
:102C2000ED91FC9111970190F081E02D60E0CD01D4
:102C300009958701EE24E394F12CCC24C394DA9413
:102C40008B8D9C8D2FEFD21691F1A0E2EA16F10444
:102C5000E8F00E94E115AB8DBC8D8F8D5796CC921C
:102C6000579752968C93529755961C925597569615
:102C70001C925697ED91FC9111970190F081E02DF7
:102C800060E0CD010995EE24E394F12C8B8D9C8DB1
:102C9000F8016491DC01ED91FC910190F081E02D4F
:102CA0000995BFEFEB1AFB0A0F5F1F4FC8CFDF91EB
:102CB000CF911F910F91FF90EF90DF90CF900C94E8
:102CC000E1151F93CF93DF93EC01162FAB8DBC8DD5
:102CD0008F8D91E057969C93579752968C9352976D
:102CE00055961C92559756961C925697ED91FC91CD
:102CF00011970190F081E02D60E0CD0109958B8D59
:102D00009C8DDC01ED91FC910190F081E02D612F13
:102D100009958B8D9C8DDF91CF911F910C94E115BE
:102D2000DC019296ED91FC91CB01BA0109941F93BD
:102D3000CF93DF93EC01162F48A959A96AA97BA963
:102D40008B8D9C8D0E94901666EA111167EACE0168
:102D50000E9461164CA95DA96EA97FA98B8D9C8DDF
:102D6000DF91CF911F910C949016BF92CF92DF927A
:102D7000EF92FF920F931F93CF93DF93EC0148A93B
:102D800059A96AA97BA98B8D9C8D0E94901645E05C
:102D900060E47DE0CE010E94F5156C816150CE01AA
:102DA0000E9461162E813F81C901079697FD079603
:102DB00023E0959587952A95E1F72C813D81829FA7
:102DC0006001839FD00C929FD00C1124ED8CFE8C5F
:102DD000AB8DBC8D8F8D91E057969C9357975296F3
:102DE0008C93529755961C92559756961C925697CF
:102DF000ED91FC9111970190F081E02D60E4CD01FF
:102E000009958701C00ED11EEE24E394F12CBB245A
:102E1000B3948B8D9C8D0C151D0589F120E2E21673
:102E2000F104E8F00E94E115AB8DBC8D8F8D5796B3
:102E3000BC92579752968C93529755961C925597E1
:102E400056961C925697ED91FC9111970190F08146
:102E5000E02D60E4CD010995EE24E394F12C8B8DF7
:102E60009C8DD8016D918D01DC01ED91FC9101905B
:102E7000F081E02D0995BFEFEB1AFB0ACACF0E9443
:102E8000E1154CA95DA96EA97FA98B8D9C8DDF9161
:102E9000CF911F910F91FF90EF90DF90CF90BF9057
:102EA0000C9490160F931F93DC0118968C91189731
:102EB000882361F0489FA0011124452F829F900133
:102EC0001124232F809F80011124012F1E968C91A5
:102ED0001E971996ED91FC911A971B969C911B9742
:102EE00089131EC0CB01880F991F680F791F6E0FC1
:102EF0007F1F1B96EC911B97E60FF72FF11D408368
:102F00001C96EC911C97E60FF72FF11D20831D9660
:102F10008C91680F711DFB0100831F910F91089523
:102F2000660F771F660F771F6E0F7F1FFB01E80F7D
:102F3000F11D1082DECF7F928F929F92AF92BF924F
:102F4000CF92DF92EF92FF920F931F93CF93DF9375
:102F5000CDB7DEB72C970FB6F894DEBF0FBECDBF4E
:102F60005C018CE0E6E0F1E0DE01119601900D924B
:102F70008A95E1F7CE0101967C018501D12CC12C07
:102F80009924939483E0882E94E0792ED7018C9134
:102F9000B2E0EB0EF11C0E94C5099C01F8016085AE
:102FA00091859F5F9187643070F4623078F143E0DF
:102FB00050E0623011F442E350E0232B09F446C0A4
:102FC000F80110862DC0643021F4232B11F4908673
:102FD0001186BFEFCB1ADB0A0E5F1F4FE6E0CE165D
:102FE000D104A1F62C960FB6F894DEBF0FBECDBF6C
:102FF000DF91CF911F910F91FF90EF90DF90CF90D5
:10300000BF90AF909F908F907F90089581E0232B89
:1030100009F080E0262F2170821721F0F8017086D8
:103020001186D7CF9130A9F682E0611101C084E00A
:10303000D80118968C93189719961C9270E0D501B8
:103040005496ED91FC91C6010995C3CF94171506CE
:1030500009F0BFCFD80118968C92189719961C9238
:1030600062E070E0ECCFFB0131963491FB01A4915A
:10307000329624916D5F7F4FFB0145915491FC0185
:10308000A083318322835483438308952F923F92F8
:103090004F925F926F927F928F929F92AF92BF9268
:1030A000CF92DF92EF92FF920F931F93CF93DF9314
:1030B000CDB7DEB7A9970FB6F894DEBF0FBECDBF70
:1030C0007C01DC015E968C915E97813009F013C122
:1030D00092968C919297813009F06CC099969C9150
:1030E00099975F968C915F97981360C099961C9200
:1030F000999798968C91989791E0980F9F70807F00
:10310000892B98968C93989790966C9170E080E1BB
:1031100090E00E946E3C10E0A701465D5F4F4701C2
:10312000B2E38B0E911C21E030E0F70180A118176B
:10313000E8F580A58F70169FF001179FF00D112400
:103140008E0F9F2F911D8F709927E82FE695F0E045
:103150006A01CE0EDF1E082F0170B02ED6010C9131
:1031600080FF20C00F700C93E80DF91D0081BB207B
:10317000D9F00F700083F701E80FF91F12AEF901C3
:1031800002C0EE0FFF1F8A95E2F7D70195968D9149
:103190009C9196978E2B9F2B96969C938E939597AA
:1031A0001F5FC3CF007FDFCF007FE4CFF70181A592
:1031B0008F5F81A79701285F3F4F38A32F8FD701DB
:1031C00097968C919797DD24D394D80E50962C9196
:1031D0005097D216A1F151960D911C91215070E09B
:1031E00060E061F08F3FF9F430E050E040E06FEFD5
:1031F0007FEF80E090E00E94A43CB901F801D70184
:103200001C964D915C91CF01801B910B8417950703
:10321000A0F4DF014D91469FC001479F900D1124FE
:103220009083FD01ECCF8D2D90E0982F882701979A
:10323000622F70E00E945A3CE1CFF701D08A17015B
:10324000D12CC12C9701265D3F4F3FA32EA3A70190
:103250004E5C5F4F59A748A7CE010E969E8B8D8B73
:103260002C2D269530E0AEA1BFA1A20FB31FBA8FBF
:10327000A98F8C91BC2DB170B9A3C0FC82958F70C1
:10328000E8A5F9A5E20FF31FF88FEF8B1081F9A1E4
:10329000F11112951F70D70193966D917C91B5E055
:1032A0008B9F600D711D1124CE010B960E94331867
:1032B000F70185A196A10C2C02C0969587950A94DA
:1032C000E2F780FDD9C082859385C816D90640F4FF
:1032D0000D852B854C85B6018F8D98A10E945217C4
:1032E000FFEFCF1ADF0A0FEF201A300A20E1C216D3
:1032F000D10409F0B5CFD70151968D919C91892BBE
:1033000009F4A1C00E94830AF7010789108D218D5D
:10331000328D601771078207930720F4678B708FD7
:10332000818F928FF7010789108D218D328D601B5F
:10333000710B820B930B6C3271408105910510F378
:10334000F894D7011C968D919C911D979A8389833F
:1033500051960D90BC91A02D8D010F5F1F4F8C9148
:103360008C8BF7018085A38DB48D882309F437C237
:103370001E82AB32B10509F07BC19BB1858D982BC4
:103380009B8B9BB1809589238A8B8A898B878C89BB
:1033900087FF02C08B898B875B896A894C893B8553
:1033A0002E8189819A81D8015BB9262F3BB900C053
:1033B00046FD252F6BB900C05BB9362F2BB900C075
:1033C00045FD352F6BB900C05BB9262F3BB900C056
:1033D00044FD252F6BB900C05BB9362F2BB900C057
:1033E00043FD352F6BB900C05BB9262F3BB900C038
:1033F00042FD252F6BB900C05BB9362F2BB900C039
:1034000041FD352F6BB900C05BB9262F3BB900C019
:1034100040FD252F6BB901975BB9362F2BB94D9124
:1034200047FD352F6BB901F64C8B3B872E839A8372
:10343000898378940E94830AD70157966D937D9370
:103440008D939C935A97A9960FB6F894DEBF0FBE42
:10345000CDBFDF91CF911F910F91FF90EF90DF9043
:10346000CF90BF90AF909F908F907F906F905F9024
:103470004F903F902F900895D101DA968C91DA9772
:1034800026819781392F3F77829FA001839F500D1E
:1034900011245C8F4B8F8F3F19F08F5FDA968C93DE
:1034A000D70193966D917C91B5E01B9F600D711DC6
:1034B0001124CE0106960E94331889849A84EB8DDC
:1034C000FC8DE815F90508F470C02E814F81E88560
:1034D000F0E0E05CF84F0491E22FF0E0E05CF84FA0
:1034E0002491E42FF0E0E05CF84F4491D7011A9664
:1034F0008D919C91C816D90628F4B6018F8D98A19C
:103500000E94521789859A85EB8DFC8DE817F90783
:1035100008F4E6CE01E0010FD70191969C91892F26
:103520008F70081758F1192F12951F70212F30E056
:103530002F5F3F4F8150990B281739070CF4C901B1
:10354000082FF70163A174A1F5E01F9F600D711DA5
:103550001124CE0101960E943318D70116966C9162
:10356000169717968C91782F7F778C819D81019784
:10357000860F971F0E945A3CF10162AF0F701F70B7
:10358000F9A1FF2309F469C01295107FA98DBA8DA6
:103590008C918F70182B1C930295007FEF89F88D0A
:1035A00080818F70082B00839BCE8E859F85B0E035
:1035B000A0E02B8D3C8D2901712C612C481A590AF1
:1035C0006A0A7B0A2AE0440C551C661C771C2A9563
:1035D000D1F7B12CA12C881A990AAA0ABB0A3AE0A1
:1035E000880C991CAA1CBB1C3A95D1F7AE01455F0B
:1035F0005F4F5E8F4D8FCE0106969DA38CA3DE019B
:103600001196BBA3AAA3ED8DFE8D0191FE8FED8FC8
:10361000ACA1BDA12D91BDA3ACA330E050E040E032
:10362000201B310941095109C301B2010E944A3CE2
:10363000A50194010E94A43C020FEAA1FBA1019301
:10364000FBA3EAA32D893E894D8D5E8D2417350796
:10365000D1F629814A81EB813BCFA98DBA8D8C911E
:10366000807F182B1C93EF89F88D8081807F9ACF03
:10367000A532B10509F058C095B1858D982B9B8B6B
:1036800095B1809589238A8B8A898B878C8987FF5E
:1036900002C08B898B875B896A894C893B852E8127
:1036A00089819A81D80155B9262F35B900C046FDC8
:1036B000252F65B900C055B9362F25B900C045FD85
:1036C000352F65B900C055B9262F35B900C044FD66
:1036D000252F65B900C055B9362F25B900C043FD67
:1036E000352F65B900C055B9262F35B900C042FD48
:1036F000252F65B900C055B9362F25B900C041FD49
:10370000352F65B900C055B9262F35B900C040FD29
:10371000252F65B9019755B9362F25B94D9147FD2C
:10372000352F65B901F680CE989709F082CE98B111
:10373000858D982B9B8B98B1809589238A8B8A895C
:103740008B878C8987FF02C08B898B875B896A890D
:103750004C893B852E8189819A81D80158B9262FC1
:1037600038B900C046FD252F68B900C058B9362FBA
:1037700028B900C045FD352F68B900C058B9262FBB
:1037800038B900C044FD252F68B900C058B9362F9C
:1037900028B900C043FD352F68B900C058B9262F9D
:1037A00038B900C042FD252F68B900C058B9362F7E
:1037B00028B900C041FD352F68B900C058B9262F7F
:1037C00038B900C040FD252F68B9019758B9362F88
:1037D00028B94D9147FD352F68B901F625CE9C914A
:1037E000858D982B9B8B9C91809589238A8B8A89C8
:1037F000898B88E0888B5B896A894C89388929891B
:1038000089819A81F8015C9347FD252F2C93262FFF
:103810003A9531F0441F6C9300C000C000C0F3CF54
:103820006C93000038E04191019769F7F7013896F1
:10383000B48BA38B4C8B388B298BF9CDCF93DF9333
:10384000EC01D9011D961C921E921C971F961C928A
:103850001E921E9791E054969C93549755969C9374
:10386000559757969C93579781E090E053969C9379
:103870008E93529751969C938E935097EB81FC8137
:103880009A01AB01BD018D819E81DF91CF91099499
:10389000FC01118610860895FC0197859F5F933087
:1038A00009F490E097878281816082830895DC012A
:1038B0001896ED91FC9119971A968D919C91099407
:1038C000CF93DF93EC0160ED77E003960E94ED0863
:1038D0008A8181608A83DF91CF9108955F926F9290
:1038E0007F928F929F92AF92BF92CF92DF92EF9290
:1038F000FF920F931F93CF93DF93E9018A849B84F8
:10390000A884B984E881F9810284F385E02DC90196
:103910000995350187E0680E711C77FE04C03501FA
:103920008EE0680E711C93E0759467949A95E1F7A8
:10393000D12CC12C512CF12CE12CE814F90464F5A4
:1039400010E000E00A151B050CF5C80187709927E7
:10395000550C892B59F4F80183E0F595E7958A9584
:10396000E1F7EC0DFD1DE45EFA4F549057FE0BC0DD
:10397000E881F9810484F585E02D21E030E0A7019C
:10398000B801CE0109950F5F1F4FDCCF8FEFE81A0A
:10399000F80AC60CD71CD1CFE881F9810688F789CF
:1039A000E02DCE01DF91CF911F910F91FF90EF900D
:1039B000DF90CF90BF90AF909F908F907F906F904F
:1039C0005F9009940895FC018781877E8783118623
:1039D00082818160828308958F929F92AF92CF926D
:1039E000EF92FF920F931F93CF93DF934C01EB0164
:1039F000DC011996EC91199713962D913C9114972F
:103A0000E20FF32FF11D15968C9180FF26C02081C7
:103A10004E855F856C857D8583E0A82E93E0C92E59
:103A2000F12CE12C01E010E0CE010E94E70EF40140
:103A3000868186958F712C853D85820F932F911DF0
:103A40009D878C87DF91CF911F910F91FF90EF9011
:103A5000CF90AF909F908F9008952491D9CF26E07A
:103A6000629F800D911D11240896089583E00895AA
:103A7000DC011696ED91FC910994DC011496ED9110
:103A8000FC910994DC011296ED91FC910994FC01E2
:103A9000E65BFF4F218160FB24F92183613019F03F
:103AA00008960C94ED0B8796FCCFDF92EF92FF9275
:103AB0000F931F93CF93DF9300D01F92CDB7DEB744
:103AC0008C01E42ED52EF22E342FE42FF52F862FE5
:103AD000962F2E2F231B2F1520F42191920F890F43
:103AE000F8CF69838927982789279B838A83D80100
:103AF000ED91FC910190F081E02D6FEAC8010995EC
:103B0000D801ED91FC910190F081E02D6AEFC801A0
:103B10000995D801ED91FC910280F381E02D43E0FD
:103B200050E0BE016F5F7F4FC80109954F2D50E0F7
:103B3000D801ED91FC910280F381E02D6E2D7D2D59
:103B4000C80109950F900F900F90DF91CF911F91B1
:103B50000F91FF90EF90DF900895873030F485301B
:103B600050F4833020F080E008958730E1F38A300C
:103B7000D1F78BE0089581E008955F926F927F9274
:103B80008F929F92AF92BF92CF92DF92EF92FF926D
:103B90000F931F93CF93DF937C01EB015A016901CF
:103BA000512C3C018CE4680E711C4701EDE48E0E33
:103BB000911C8701065B1F4FE881F9810084F18524
:103BC000E02DCE010995892B09F4F4C055245394B6
:103BD000F3019081892F881F8827881FF401908125
:103BE0009370990F982BE881F981913009F49CC06A
:103BF00008F489C0923009F4A6C09330E9F6008435
:103C0000F185E02DCE010995F401208126952695B8
:103C10002F712817190611F00CF0CEC0F701E65BE2
:103C2000FF4F82818F77828383818C7F8383E881BA
:103C3000F9810284F385E02DCE010995F501808399
:103C4000E881F9810284F385E02DCE0109957C019C
:103C5000E881F9810284F385E02DCE01099500E029
:103C6000182F0E291F29F50180810E94AD1D782E85
:103C70008823D9F1C114D10409F489C0882E912C6C
:103C800076012FB7F89480917F0290918002A091E5
:103C90008102B09182022FBF88879987AA87BB874C
:103CA000E881F9810284F385E02DCE01099597FF23
:103CB00085C02FB7F89480917F0290918002A091E7
:103CC0008102B09182022FBF488559856A857B8524
:103CD000841B950BA60BB70B4C815D816E817F8198
:103CE00084179507A607B707D8F2F50190813C2DF8
:103CF000F601892F2E2F231B271508F042C0219192
:103D0000920F890FF7CF0284F385E02DCE0109953C
:103D10008F3A39F4F80182818068828383818C7FB5
:103D200083835524539448CF0284F385E02DCE013C
:103D300009958A3FB1F7F80182818F778283838169
:103D40008C7F8160EDCF0084F185E02DCE01099557
:103D5000039794F1E881F9810484F585E02DCE0183
:103D600009950E94AD1DF80192819068928393811C
:103D700090788D5F8F71880F880F9160982B938357
:103D8000D0CF8927982789270817190789F083E05A
:103D9000DF91CF911F910F91FF90EF90DF90CF9027
:103DA000BF90AF909F908F907F906F905F9008959D
:103DB00082E0EECF852DECCF81E0EACFF701819351
:103DC0007F01CF018C199D098815990508F459CFF9
:103DD0008CCF80E008952F923F924F925F926F9226
:103DE0007F928F929F92AF92BF92CF92DF92EF928B
:103DF000FF920F931F93CF93DF9300D000D000D09A
:103E0000CDB7DEB74C0152E0C516D1049CF420FFBB
:103E100002C06F5F2150C114D10409F471C0A42FF6
:103E2000A00FBB27BB1F1197BE83AD8322242A940A
:103E3000322C19C000FF02C04F5F0150A2E0CA1629
:103E4000D10441F0862F820F9927991F01979E83F5
:103E50008D83ECCF69839981892F90E09E838D8338
:103E600022242394312C92E0C916D1040CF04AC0CC
:103E7000422E4694460E5524551C822FA2E0CA16A7
:103E8000D1040CF4802F482F50E05A83498352E02C
:103E9000C516D1040CF4022F802F90E09C838B83F5
:103EA000712C612CAA24A394B12CF12CB2016619B7
:103EB0007709A981BA816A167B0698F54B815C81E6
:103EC0004A155B0570F1D401ED91FC91B2E0CB167F
:103ED000D104F4F40288F389E02D870195014D8126
:103EE0005E81C401099542E0A40EB11C8D819E81C2
:103EF000820D931D9E838D839FEF691A790AD6CF19
:103F00004983A9CF402E4694440E5524551CB5CF65
:103F10000088F189E02D87019501AB016D817E81DB
:103F2000E0CF26960FB6F894DEBF0FBECDBFDF916F
:103F3000CF911F910F91FF90EF90DF90CF90BF90A6
:103F4000AF909F908F907F906F905F904F903F9039
:103F50002F900895AF92BF92CF92DF92EF92FF928F
:103F60000F931F93CF93DF93EC0159012A8520FD16
:103F700029C0D5011896ED91FC91CF0166E070E063
:103F80000E946E3C362F3F71330F21708E85807EEC
:103F900080618E87CF016CE070E00E946E3C6150C2
:103FA000862F8295880F880F807C232B66956695D7
:103FB000677060666B8790E99C8799ED9D87282BD9
:103FC00021602A87F501158614861786168681E0FA
:103FD000848B858B8F85813009F453C008F448C0E9
:103FE000823009F454C02C85922F92959695977043
:103FF0008D85282F2370220F220F220F292B30E0CE
:1040000086958695877090E0D5011D969C938E933A
:104010001C971F963C932E931E9782E054968C9388
:10402000549755968C93E9848D819E81E80EF92EE4
:10403000F11C0A85802F82958695869583700B8565
:104040000770000F000F082B0E0D1F2D111DD5013D
:10405000ED91FC910E151F0501F1D7016D917D01C8
:104060006623D9F00190F081E02DC5010995EFCFCD
:104070004A8546954F716B817C81C5010E94460936
:10408000B2CF4A8546954F716EE277E0F6CF4A850A
:1040900046954F716CE177E0F0CF2B8526952695FC
:1040A000269530E00C850F7110E0D5011E964D91DC
:1040B0005C9168858985681B770B629FC001639F4F
:1040C000900D729F900D11246D85669566956770B1
:1040D0006150770B680F791F00A0F1A1E02DEE244D
:1040E000E394F12CC5010995F501118A108A01E0CC
:1040F00010E0138B028B288530E08985B901681B9D
:1041000071099B85969596959695969FA001979F88
:10411000500D11248D85869586958770840F952F77
:10412000911D958784878D819E81280F391F01906D
:10413000F081E02D0190F081E02DD9016C91C50155
:104140000995F501118B008B138A128A9A85892FA4
:1041500082958695869583703B85932F9770990FEE
:10416000990F982B2985290F8F818150281760F589
:104170002E85022F06950F706D85462F4295469528
:1041800047702170220F220F220F242B5C85452FB0
:104190004F7146954695529556955770862F837068
:1041A000880F880F880F852B480F369536953695E2
:1041B000669566956770399F600D112493E0C92E4E
:1041C000D12CC5010E94EB1E8985882331F12E85F3
:1041D000022F06950F709D85392F329536953770D1
:1041E0002170220F220F220F232B3C85832F8F71EA
:1041F00086958695432F4295469547709370990F03
:10420000990F990F492B480F82E0C82ED12CEE242C
:10421000E39460E0C5010E94EB1EDF91CF911F91F6
:104220000F91FF90EF90DF90CF90BF90AF900895E7
:104230002F923F924F925F926F927F928F929F92B6
:10424000AF92BF92CF92DF92EF92FF920F931F93A4
:10425000CF93DF9300D000D000D01F92CDB7DEB750
:104260009F838E835901DC0115968C91159780FDF3
:1042700031C017968C9117978C7F816017968C931D
:10428000179786E016968C93F9012285338537FFC0
:1042900002C0295F3F4F43E0359527954A95E1F7E6
:1042A000D50118968D919C9166E070E00E946E3C5D
:1042B000962F9295907F822F8F70892BEE81FF81B0
:1042C00080876295617081858E7F682B618785818B
:1042D00081608583D5011D961C921E921C971F96A6
:1042E0001C921E921E9781E054968C93549755967B
:1042F0008C93EE81FF8100850F7010E083819481A3
:10430000DC01ED91FC910190F081E02D0995C82E22
:10431000D12C0C151D0508F46801EE81FF81528433
:10432000852D881F8827881F5384F52DFF735F2EE6
:10433000550C582A5B82AE81BF8113968D919C915A
:10434000DC01ED91FC910190F081E02D0995282E82
:10435000312CEE81FF819285892F881F8827881F45
:1043600093859F73990F982B2085822F8F70492FEB
:10437000480F5527551F2A0181855B8151110CC0BB
:10438000982F91709295907F322F32953F70932B9A
:104390004214530408F089C022952F7081708295D1
:1043A000807F822BA82FA150BB0BBA83A983912CAD
:1043B000812C712C612C8C149D0409F483C0AE8176
:1043C000BF811A968C911A97982F991F9927991F38
:1043D0001B968C918F73880F892BF401E80FF11DC8
:1043E000FD83EC83D5011D961C921E921C971F968F
:1043F0007C926E921E97EE81FF8182858F772C8151
:104400003D818217130609F055C00681802F8295E1
:104410008695877007810370000F000F000F082B2F
:1044200010E018962D913C911997ED91FC9100A008
:10443000F1A1E02DEE24E394F12CA30170E060E003
:10444000C5010995D50151961C921E92509753961D
:10445000FC92EE925297AE81BF8113968D919C9102
:10446000DC01ED91FC910280F381E02D6C810995D6
:10447000FC01608171814981C5010E944609AE81BC
:10448000BF8116968C911697982F92959695977056
:1044900017968C918370880F880F880F892B680E70
:1044A000711CBFEF8B1A9B0A86CFE92FF0E0FA83CD
:1044B000E9837DCF21E030E0F501318B208B138A39
:1044C000128AC9CFEE81FF810681202F2F7130859E
:1044D000932F92959F70818581708295807F892B23
:1044E0008150990B289F4001299F900C1124421460
:1044F000530460F59285492F4F77991F9927991F8B
:1045000083858F73880F892B481B550B832F8F70E2
:104510008150990BEE24E3944817590709F4E12CD4
:10452000802F829586958770AE81BF8117960C91FA
:104530000370000F000F000F082BCC24C394D12C64
:10454000F5014685682DC5010E94EB1EFB81FF2306
:1045500049F1AE81BF811A969C911A97292F2F7726
:10456000991F9927991F1B968C918F73880F892B00
:10457000EE24E394281301C0E12CEE81FF81268113
:10458000822F82958695877007810370000F000F38
:10459000000F082B2F71D12CC12C40E0682DC501D4
:1045A0000E94EB1E27960FB6F894DEBF0FBECDBF5C
:1045B000DF91CF911F910F91FF90EF90DF90CF90FF
:1045C000BF90AF909F908F907F906F905F904F9033
:1045D0003F902F900895CB0168EE74E00C94DA0AB6
:1045E000FC01A481B5816C938481958101969583AA
:1045F000848381E090E00895FC0122812160228380
:104600000895089590E080E00895FC01878187FB7C
:10461000882780F991E08927089590914C03913083
:1046200021F490915003992321F198E2909334035F
:104630009091350390789093350391E090934C03DB
:1046400010925003109254031092530323EB3DE059
:10465000309352032093510395E290934F0398E7D0
:1046600090935503E6E5F3E092E2DF011D929A95FF
:10467000E9F7409153035091540330E020E0E1E02A
:10468000F0E0281760F4BF01022E02C0660F771F0A
:104690000A94E2F7462B572B2F5F3F4FF2CF5093F0
:1046A0005403409353030895BF92CF92DF92EF9249
:1046B000FF920F931F93CF93DF9300D000D01F92F0
:1046C000CDB7DEB710E000933403712F7F773091C0
:1046D00035033078372B3093350331E030934C037A
:1046E00033E0309350035093540340935303E6E573
:1046F000F3E032E2DF011D923A95E9F7362F3F7081
:1047000060914F03607F632B60934F03909352033C
:1047100080935103E22EF12C08E613E0D12CC12C3A
:1047200085E0B82E60914F036F706B9DB00111242E
:10473000655071098091510390915203680F791F60
:10474000CE0101960E9433186091340370913503B5
:104750007F778C819D810E945A3CC6010E945A3C01
:10476000F80181938F01CE0CDF1CF3E008371F079F
:10477000C9F680914F038F70806180934F0382E36D
:10478000809355030F900F900F900F900F90DF9133
:10479000CF911F910F91FF90EF90DF90CF90BF903E
:1047A00008950F931F93CF93DF93A42F98E29093D4
:1047B00034039091350390789093350330E020E0F6
:1047C00050E040E070E007E010E0FB01022E02C084
:1047D000F595E7950A94E2F7E170FF27E801C21B1F
:1047E000D30B02C0EE0FFF1FCA95E2F74E2B5F2BD3
:1047F0002F5F3F4F2830310541F7882371F064E087
:104800008CEC9DE020E0A1115F6F08E20E94542330
:10481000DF91CF911F910F91089567E080EE9DE0A9
:104820002AE0F1CF0F93CF93DF9390E06FE670E033
:104830000E945A3C803408F061C0A82FA69596E0EB
:10484000A99FD0011124BD016D5F7F4FFD0180FF45
:1048500015C0E452F14F45915491FD01E252F14FE0
:104860002491FD01E052F14F859194916452714F72
:10487000FB01649104E10E9454233CC0E45EF14FCB
:104880002491FD01E35EF14F45915491FB01E45EFB
:10489000F14F65917491AF5DB14FFD01A49184E139
:1048A000809334039091350390789093350381E0A1
:1048B00080934C038093500310925403109253033F
:1048C000E6E5F3E082E2EF0119928A95E9F7709349
:1048D000520360935103AF70A0934F0382E3809320
:1048E0005503CA0164E170E00E945A3C60934D0395
:1048F00020934E03DF91CF910F9108958052D6E01F
:104900008D9FB0011124FB01E452F14F4591549168
:10491000FB01E252F14F2491FB01E052F14F8591EE
:1049200094916152714FA4CFFC01868197819C01C3
:10493000295F3F4F37FF02C0295F3F4F83E0359526
:1049400027958A95E1F784819581289FA001299F69
:10495000500D389F500D112470E060E0858D968DCC
:104960000C94033E2F923F924F925F926F927F92F0
:104970008F929F92AF92BF92CF92DF92EF92FF926F
:104980000F931F93CF93DF9300D01F92CDB7DEB765
:104990009B838A838901FC01868180FD22C0817C02
:1049A00084628683F90122853385C901489797FD82
:1049B000019695958795382F3295330F330F307CBC
:1049C000EA81FB8126812F73969587959695879529
:1049D00087709781987F892B8783822F832B8160B3
:1049E0008683EA81FB81878186958695869583708B
:1049F000813009F489C008F1823009F4A5C0833000
:104A000009F4BFC0EA81FB818281816082830F90BB
:104A10000F900F90DF91CF911F910F91FF90EF902A
:104A2000DF90CF90BF90AF909F908F907F906F90CE
:104A30005F904F903F902F900895EA81FB8186818F
:104A400086958F718983282E312C8085F8E12F0E71
:104A5000311C811103C0F0E42F2E312CE8EECE2E54
:104A6000E3E0DE2EE12CF12CCB01BA01A701960187
:104A70000E94823C2B013C01A0E5B0E00E94303C4A
:104A80004B015C01A30192010E94303CA7019601F9
:104A90000E94823CCA01B901680D791D8A1D9B1DC7
:104AA000EA81FB8125812695F9812F9F200C311CFD
:104AB00011249101330C440B550B0E94823C23E0DE
:104AC000F801248B258BEA81FB812681229526958E
:104AD0002695237037813770330F330F232B30E047
:104AE00044275527461B570BF801558744873787BE
:104AF0002687178AC8010E949424EA81FB81878156
:104B0000877E886087837ECFF8018485958597FFAF
:104B10000EC0B8018A819B810E94EC1CEA81FB8156
:104B200081858F5F8187958196958913EDCFEA8185
:104B3000FB818581869591859817E0F4EA81FB8158
:104B40008781877E8061DECFB8018A819B810E9448
:104B5000EC1CEA81FB8181858F5F8187F8012485C8
:104B600035852038310564F5EA81FB81958196957C
:104B7000891720F3EA81FB81878188618783118609
:104B800041CFF80124853585EA81FB818085882322
:104B900009F1245F3F4FF801358724876AE175E00A
:104BA000C8010E94DA0AF801848595850C969587DC
:104BB0008487F80184859585803891050CF4BECFF3
:104BC000EA81FB818781877E87831186C8010E94E5
:104BD000B51618CFF8018085918597FD01969595BA
:104BE0008795820F931FF801E2CF8F929F92AF9229
:104BF000BF92EF92FF920F931F93CF93DF93EC013D
:104C00007C018EEBE81A8DEFF80AD701ED91FC914B
:104C10000190F081E02D928190FF32C04A015B014A
:104C20008E01085F1D4F91FF03C0C8010E949424AC
:104C3000D701ED91FC91A081B18112968C911297D0
:104C40008E7F12968C931297ED91FC9111970480B0
:104C5000F581E02D9801B501A401CD010995D70199
:104C6000ED91FC910190F081E02D828181FF03C0E4
:104C7000C8010E94B516CF5BDD4F88818F5F8883A6
:104C8000DF91CF911F910F91FF90EF90BF90AF9068
:104C90009F908F9008950E94F53DFB0101900020A8
:104CA000E9F73197AF01461B570BDC01ED91FC9101
:104CB0000280F381E02D09948F929F92AF92BF9270
:104CC000EF92FF920F931F93CF93DF93CDB7DEB791
:104CD000A1970FB6F894DEBF0FBECDBF7C01FA01DD
:104CE000CB0119A2223008F42AE08E010F5D1F4F7C
:104CF000822E912CB12CA12CBF01A50194010E9400
:104D0000823CF901CA016A300CF5605DD8016E93EE
:104D10008D01232B242B252B79F790E080E0109731
:104D200021F0BD01C7010E944D26A1960FB6F8944F
:104D3000DEBF0FBECDBFDF91CF911F910F91FF90CE
:104D4000EF90BF90AF909F908F900895695CDECFF9
:104D5000CF92DF92EF92FF920F931F93CF93DF9347
:104D6000EC016A017B01E881F9810190F081E02D7D
:104D70006DE209958C0144275527BA014C195D094C
:104D80006E097F092AE0CE010E945C26800F911FE8
:104D9000DF91CF911F910F91FF90EF90DF90CF9017
:104DA0000895AB01770F660B770B77FD0C94A8265F
:104DB0002AE00C945C26EF92FF920F931F93CF93FF
:104DC000DF937C01EB0163EE74E0CE010E94DA0A0E
:104DD0000BE812E0F8018681803128F461EE74E07E
:104DE000CE010E94DA0AF801468150E070E060E0EE
:104DF00020E1CE010E945C266FED74E0CE010E949E
:104E0000DA0A0F5F1F4FF2E00F381F0719F764EE41
:104E100071E0CE010E944D2667ED74E0CE010E9444
:104E2000DA0AF701408150E070E060E02AE0CE014C
:104E30000E945C2664EE71E0CE010E944D266BEC70
:104E400074E0CE010E94DA0AF70182818F7064EC6F
:104E500074E011F067EC74E0CE010E94DA0A64EEAF
:104E600071E0CE01DF91CF911F910F91FF90EF90F4
:104E70000C944D268F929F92AF92BF92CF92DF9269
:104E8000FF920F931F93CF93DF936C014A015B0155
:104E9000F22E822F0E94AD1D8F71E601C65BDF4F9F
:104EA000282F220F9C81917C922B9C83482F50E0CD
:104EB000B801C6018B599F4F0E94FA3D88818695A3
:104EC00086958370823049F158F58130D1F48C8118
:104ED00080648C838C81982FF0FA97F98F2D8695BA
:104EE0008F702D81207F822B8D838B8180688B83B7
:104EF0009E7F9C83F601EF59FF4F80829182A282B0
:104F0000B382DF91CF911F910F91FF90DF90CF90EF
:104F1000BF90AF909F908F9008958C818F7BD9CF59
:104F2000F601E55BFF4F90818C8191FB86F9D1CF33
:104F3000FF920F931F93CF93DF93EC01F62E08811E
:104F40001981C8010E941A3CF81621F06F2DC80182
:104F50000E94223CCE01DF91CF911F910F91FF90D3
:104F60000895CF92DF92EF92FF920F931F93CF930A
:104F7000DF9300D0CDB7DEB76C017C0110E000E01C
:104F80001A830983F70161917F01CE0101960E9486
:104F900098270F5F1F4F0532110591F7C6010F903B
:104FA0000F90DF91CF911F910F91FF90EF90DF90C5
:104FB000CF900895CF93DF93CDB7DEB7A5970FB607
:104FC000F894DEBF0FBECDBF88ED9AEB9A8389833C
:104FD000EFEAF2E081818B838091B2028695817045
:104FE0008C8380818D8380E2E4EBF2E0DE01169613
:104FF00001900D928A95E1F7CE0101960E94B127AA
:10500000A5960FB6F894DEBF0FBECDBFDF91CF914E
:105010000895CF93DF93EC0180912C0390912D03A1
:10502000865F9240D1F48091FD028150990B181651
:10503000190664F40197E091FB02F091FC02E80F7D
:10504000F91F2081203211F41082F1CF8091B20239
:1050500082608093B2020E94DA27D0932D03C0931E
:105060002C03E881F9810280F381E02DCE010995BE
:105070001092B3028091B2028B7F8093B202DF91D3
:10508000CF9108959091B2028091200391FF20C0AA
:1050900024EB32E030931F0320931E038160809342
:1050A0002003EFEAF2E0CF018F5A9240319624813B
:1050B0002111F9CF982F990F809120038170892BAE
:1050C00080932003109223038BE193E00C94092832
:1050D00023E03EE030931F0320931E038E7F8093D6
:1050E0002003F901CF0183509E4024913196211174
:1050F000F9CFE0CF1F93CF93DF93CDB7DEB72B97D8
:105100000FB6F894DEBF0FBECDBF182F1092310638
:1051100080913206887F8F7E8093320685E080936F
:10512000330610923406912F9F708091B102807FD8
:10513000892B8093B102113028F0133090F0133096
:1051400009F47FC00E9442288091AF020E9412247D
:1051500080E180937E0380917F03807880937F033A
:1051600041C08BEA9DE090931F0380931E038091C2
:1051700020038E7F80932003EBEAFDE0CF018B5A62
:105180009D40249131962111F9CF982F990F80914C
:1051900020038170892B80932003109223038BE1DD
:1051A00093E00E94092880E180937E0380917F0331
:1051B000807880937F03123011F5809106068695E2
:1051C000869583708130C1F48093330688EE809396
:1051D000750680917606807883608093760680E0FD
:1051E0000E940D232B960FB6F894DEBF0FBECDBFE5
:1051F000DF91CF911F91089510923306E7CF8091F0
:105200000706982F9295969597708091080683705F
:10521000880F880F880F892B29F719828AE0EBE81D
:10522000F2E0DE01129601900D928A95E1F79E015F
:105230002F5F3F4F4AE061E08CEB95E00E94592AD6
:10524000D1CF98EE90937506909176069078936002
:105250009093760682958F709091B202917092959C
:10526000907F892B91E009F090E041E06FEF892F6A
:105270000E94D123E5E3F6E080E2DF011D928A95EA
:10528000E9F71C821B828AE191E09A838983FE837D
:10529000ED834091B102842F82958F704091B202CC
:1052A00041704295407F482BD9F150E070E060E0BA
:1052B0002AE0CE0101960E945C2666EA7DE0CE01DE
:1052C00001960E94DA0A6CE97DE0CE0101960E9407
:1052D000DA0A8091B102982F92959F708091B20264
:1052E00081708295807F892B813031F06AE97DE081
:1052F000CE0101960E94DA0A85E396E090931F039F
:1053000080931E0380912003816080932003E5E356
:10531000F6E090E080E02191222349F00196FBCF56
:1053200068EA7DE0CE0101960E94DA0AC6CF982F86
:10533000990F809120038170892B80932003109214
:10534000230350CFEF92FF920F931F93CF93DF93DE
:105350007C01062FEC01C65BDF4F8881982F929568
:105360009F70F701E55BFF4F108111701295107F60
:10537000192B962F9295907F8F70892B888364FBD1
:10538000992790F98981827F892B89832FB7F89497
:1053900080917F0290918002A0918102B09182025F
:1053A0002FBF359780839183A283B3831E5015301E
:1053B00060F5611123C080E00E947A2860E08DE0F2
:1053C0000E94EE098D818F718D839E8189818F71FD
:1053D0008260898384E08A832B818C812C772B8364
:1053E000807C8C8390789E83C70187960E94ED0B0A
:1053F000C70108960E94ED0B153048F4DF91CF915C
:105400001F910F91FF90EF9008956623D9F20E50EF
:105410000530A0F782E0DF91CF911F910F91FF90AF
:10542000EF900C947A280F931F93CF93DF938C0106
:10543000EC01C65BDF4F6370962F990F990F88813F
:10544000837F892B8883613031F0A0F4DF91CF9185
:105450001F910F91089561E0C8010E94471D61E00E
:10546000C8010E94A22989818F7189838A818C7FDA
:105470008A83ECCF60E0C8010E94471D62E0C8014A
:10548000DF91CF911F910F910C94A229CF93DF93BD
:10549000EC0160E00E94132A60E0CE010E94A22984
:1054A000C65BDF4F88818E7F8D7F8883DF91CF91B0
:1054B0000895EF92FF920F931F93CF93DF938C0188
:1054C000E62EF42EE901842F0E94AD1DF801E05B69
:1054D000FF4F90819C7709F03FC08131E8F5369706
:1054E0009081969596959370913069F4E1100DC076
:1054F000C8010E94462A81E0DF91CF911F910F9150
:10550000FF90EF900895923019F19581E0FA94F9A7
:10551000282F2295220F207E9F71922B9583282F72
:105520002695269526952370968190783F2D3F717C
:10553000F32EFF0CFF0C922B9F299683482F50E0EF
:10554000BE01C8018F5A9F4F0E94FA3D80E0D4CF20
:1055500031E0E312DACFCCCF82E0CECF8091B1023E
:10556000815F8F70823018F180912C0390912D0310
:1055700022E08A3E920719F08251934011F40C9474
:10558000422885E596E09093EE028093ED028091AB
:10559000EF028E7F8093EF021092F4028091F50269
:1055A000807C8093F5028AEE92E00C94092808959D
:1055B000CF93DF934115510561F0EC016430710523
:1055C00059F44230510511F40E94AE2A8A8181605B
:1055D0008A83DF91CF9108956230710509F44DC03F
:1055E0002CF561157105B1F16130710579F7888588
:1055F0002F812250330B8217130614F48F5F888794
:10560000298538858A85982F9295969596959370D9
:105610008B858770880F880F892B820F9927991F98
:10562000381719069CF22F5F2987D0CF6330710598
:10563000C9F16530710551F6E8858D819E81E80FCD
:10564000F92FF11DDF0131968C91882341F1808182
:105650008C93F8CFE8858D819E81E80FF92FF11D9D
:105660009081892F8F7D9F5F80548A3120F0903206
:1056700011F09D32B1F79083A9CFE8858D819E818D
:10568000E80FF92FF11D9081892F8F7D9150825461
:105690008A3188F3903279F39D32B1F7ECCF1197CC
:1056A00080E28C938885882311F0815088878985D2
:1056B0009885981708F08ACF8150898787CF809185
:1056C0002C0390912D038251934011F40C94AE2A37
:1056D00008950F931F93CF93DF93452B09F478C060
:1056E0006530710519F06330710531F4DF91CF91A8
:1056F0001F910F910C94AE2A8B01EC01643071055F
:1057000019F061307105A1F48B819C816A856F77F6
:10571000DC01ED91FC910280F381E02D0995DC0123
:105720001296ED91FC91139714968D919C91099589
:105730000115110509F451C00230110509F048C0E6
:1057400001E010E08B819C81DC01ED91FC910190E6
:10575000F081E02D09954A854F77400F512F511D5B
:1057600030E020E04F3F540741F0682F6150770B45
:105770009B01461757070CF49A01922F9F778A8551
:105780008078892B8A872F773327982F991F99271D
:10579000991F8B858F73880F892B682F70E02617D0
:1057A000370740F048854F70460F572F511D24177B
:1057B000350758F0800F9A8580FB97F99A87869570
:1057C0008F739B85907C892B8B878A8181608A83EC
:1057D000DF91CF911F910F9108950FEF1FEFB2CF7F
:1057E000452B29F06530710511F40C94AE2A08950B
:1057F0008BEE92E290932903809328038FEA92E044
:1058000090932B0380932A0385E293E00E9409285A
:10581000E1EBF2E081818460818308958BED96E273
:1058200090932903809328038FEA92E090932B03AF
:1058300080932A0385E293E00C9409288DEF94E08D
:105840009093FA028093F90284EB92E09093FC0229
:105850008093FB0280E28093FD02EFEAF2E02FECFE
:1058600032E080E040E291E05581511190E0892BD7
:1058700009F0458331962E173F07A9F71092D302FE
:1058800086EF92E00C940928CF93DF9341155105E0
:1058900009F16530710521F4DF91CF910C94AE2AA6
:1058A000EC0161157105C9F44230510599F48BED95
:1058B00096E290932903809328038FEA92E09093D5
:1058C0002B0380932A0385E293E00E9409288A81B2
:1058D00081608A83DF91CF9108954FEF6330710526
:1058E00021F041E061307105A9F78091AF0220916C
:1058F000B002042E000C550B240F352F311D2F3F05
:10590000320771F08150990B281739070CF4C9013F
:105910008093B0020E941224DF91CF910C94DA2779
:1059200080E0F6CFEF92FF920F931F93CF93DF9318
:1059300000D000D000D0CDB7DEB79091B102892F52
:105940008F70823081F0833009F47CC026960FB6C8
:10595000F894DEBF0FBECDBFDF91CF911F910F91A5
:10596000FF90EF90089580913306982F97709230B2
:1059700009F441C09530B1F0913041F78695869594
:1059800086950E940D2380913306982F96959695C3
:1059900096959830F8F49F5F990F990F990F87703B
:1059A000892B11C0869586958695883078F49091DC
:1059B0000606969596959370913041F48F5F880F07
:1059C000880F880F856080933306C0CF81E00E94E6
:1059D0007A28BCCF809106068695869583708230A2
:1059E00091F330E020E04BE061E08CEB95E00E9429
:1059F000592A83E0E8CF869586958695885F0E9430
:105A00000D2380913306982F96959695969598300C
:105A100010F28091060686958695837030E020E02E
:105A2000813041F44DE061E08CEB95E00E94592A11
:105A300085E0C9CF4CE060E08CEB95E00E94592AEC
:105A400084E0C1CF80913406885F80933406282F8C
:105A5000287F203409F07ACF877080933406292F6D
:105A600022952F709091B20291709295907F922B17
:105A70000091AF02602F70E0092F10E0811169C022
:105A800081E080933406923010F0000F111F060F52
:105A9000171F0115110509F44EC0093C110510F03E
:105AA00008EC10E081E0911180E040E0602F0E945E
:105AB000D12395E3E92E96E0F92E80E2F7011192C9
:105AC0008A95E9F71C821B828AE191E09A83898397
:105AD000FE82ED8263E175E0CE0101960E94DA0A52
